:020000040800F2
:10000000380900207502000819400008F53F000873
:1000100015400008F50E0008A14C00080000000083
:1000200000000000000000000000000085480008FB
:10003000110F0008000000001D400008894800085A
:100040008F0200088F0200088F0200088F0200084C
:100050008F0200088F0200088F0200088F0200083C
:100060008F0200088F0200088F0200088F0200082C
:100070008F0200088F0200088F0200088F0200081C
:100080008F0200088F0200088F0200088F0200080C
:100090008F0200088F0200088F0200088F020008FC
:1000A0008F0200088F0200088F0200088F020008EC
:1000B0008F0200088F0200088F0200088F020008DC
:1000C0008F0200088F0200088F0200088F020008CC
:1000D0008F0200088F0200088F020008954C00086C
:1000E0008F0200088F0200088F0200088F020008AC
:1000F000514900088F0200088F0200088F02000893
:100100008F020008594000088F0200088F02000883
:100110008F0200088F0200088F0200088F0200087B
:100120008F0200088F0200088F020008F90E0008F5
:100130008F0200088F0200088F0200088F0200085B
:100140008F0200088F0200088F0200088F0200084B
:100150008F020008050F00088F0200088F020008B8
:100160008F0200088F0200088F0200088F0200082B
:100170008F0200088F0200088F02000800000000B4
:100180008F0200088F02000800F002F800F062F809
:1001900014A696E8000CB244B344DA4501D100F04D
:1001A00059F8BAE80F000FA696E83000A5EB040551
:1001B00004EB0607AAEB0704A7F101074FEA1515A0
:1001C0004FEA3414A4F10104AC4201D300F042F828
:1001D00013F0010F18BFFB1A43F0010300F001F800
:1001E000DBE7184790570000B0570000103A24BFD3
:1001F00078C878C1FAD8520724BF30C830C144BF8C
:1002000004680C6070470000704700000023002461
:1002100000250026103A28BF78C1FBD8520728BF16
:1002200030C148BF0B607047662905F02F837529E0
:1002300000F0CE80002070471FB505F01AFB00F0DB
:10024000B5FC04000020002105F086FAE0601FBD27
:1002500010B510BD00F0AAFD1146FFF7EDFF04F048
:1002600021FD00F0C8FD03B4FFF7F2FF03BC00F06E
:10027000CBFD00000948804709480047FEE7FEE73C
:10028000FEE7FEE7FEE7FEE7FEE7FEE7FEE7FEE746
:1002900004480549054A064B704700003D490008DF
:1002A00089010008380300203809002038050020A3
:1002B0003805002053EA020C00F069802DE9F04B6C
:1002C0004FF00006002B1FBFB3FA83F503FA05F4C5
:1002D00024FA05F65E4012BF1643B2FA82F502FA1E
:1002E00005F4C5F120051EBF22FA05FC44EA0C0402
:1002F000203556EA044C4FEA144418BF641C4FF0F2
:1003000000084FF00009904271EB030C39D300292B
:1003100019BFB1FA81F701FA07F6B0FA80F700FACF
:1003200007F6C7F120071EBF20FA07FC46EA0C06B5
:100330002037B6FBF4FCA7EB0507103F07F01F0BB7
:10034000CBF120062CFA06F60CFA0BFB44BFB346A1
:100350000026202FA4BF5E464FF0000B5BEA060C80
:1003600008BF4FF0010B19EB0B0948EB0608ABFB7C
:10037000027C06FB02CC0BFB03CCC01B71EB0C0117
:10038000C1E70B46024641464846BDE8F08B13B52F
:10039000084318BF4FF0FF300146AFF30080BDE8BF
:1003A0001C4070470FB41CB5084B06AA7B44694635
:1003B0000090059800F0E1FB04460020694600F03B
:1003C000EFFB20461CBC5DF814FB0000F1070000A9
:1003D0002DE9F0410646002410687529314616A51E
:1003E00010D0AFF30080002802DA404213A507E0E6
:1003F00031688A0701D512A502E0490704D511A585
:10040000012401E0AFF3008000210A2206F1240755
:1004100009E0B0FBF2FCB0FBF2F302FB1C00303051
:1004200078541846491C0028F3D123462A46304602
:10043000BDE8F04100F035B9000000002D000000DB
:100440002B000000200000002DE9F0474FF0000ACB
:1004500089460446C0F820A02046E1688847002865
:1004600076D0252806D0D4E901219047206A401C87
:100470002062F1E7E168204600258847C4F81CA007
:1004800006460027C4F818A02A2E09D0304605F0E9
:100490005BF938B304EB8708303EC8F8186019E000
:1004A00059F8041B204604EB87029161E1688847F4
:1004B000012F064618D1E069002820DA25F0200532
:1004C0001DE0D8F8180000EB800006EB4000303843
:1004D000C8F818002046E1688847064605F034F958
:1004E0000028EED1012F0AD02E2E08D12046E16837
:1004F00088477F1C0646022F45F02005C4DBA06913
:10050000002803DA404245F00105A061E80701D068
:1005100025F01005B6B1A6F14100192802D8203601
:1005200045F400654A463146204625604D46FFF7B2
:100530007BFE58B1012806D0ED1D25F0070000F123
:10054000080989E704E005F1040985E730468AE7F0
:10055000206ABDE8F08730B505460B462A4613F8F9
:10056000014B12F8010B08B1A042F8D01CB10028D1
:1005700002D06D1CF1E7284630BD40EA010310B5FA
:100580009B070FD1042A0DD310C808C9121F9C4223
:10059000F8D020BA19BA884201D9012010BD4FF015
:1005A000FF3010BD1AB1D30703D0521C07E0002062
:1005B00010BD10F8013B11F8014B1B1B07D110F8BF
:1005C000013B11F8014B1B1B01D1921EF1D11846C2
:1005D00010BD4FF0000200B51346944696462039F0
:1005E00022BFA0E80C50A0E80C50B1F12001BFF4EC
:1005F000F7AF090728BFA0E80C5048BF0CC05DF852
:1006000004EB890028BF40F8042B08BF704748BF9F
:1006100020F8022B11F0804F18BF00F8012B704713
:1006200030B44FF0013C50F8042B51F8043BCCFAA5
:1006300052F4D51A20D1FCB950F8042B51F8043BE0
:10064000CCFA52F4D51A17D1B4B950F8042B51F89A
:10065000043BCCFA52F4D51A0ED16CB950F8042BE5
:1006600051F8043BCCFA52F4D51A05D1002CDAD05B
:1006700030BC4FF00000704729BAB1FA81F111F097
:100680001801D1F120008440F2D1CA40CB4012F0D1
:10069000FF0213F0FF0330BCD01A70477047704759
:1006A00070472DE9F0470D4699469246044600F101
:1006B00024080168880604D5E06921F01001216052
:1006C00000E00120A84201DD471B00E00027A169EE
:1006D0007A1902EB0900081AA0612078C00602D43A
:1006E0002046AFF30080002608E0D4E901211AF883
:1006F00006009047206A401C761C20624E45F4DBC1
:100700002078C0060AD52046AFF3008006E0D4E981
:10071000012130209047206A401C2062381EA7F13A
:100720000107F4DC07E0D4E9012118F8050090473F
:10073000206A401C2062281EA5F10105F3DC20463A
:10074000AFF300802078000602D50220BDE8F087D4
:100750000120FBE72DE9FF4F0C461E464FF0FF3707
:100760008BB0D2E90001DDF860800A908A46C1F3BF
:100770000A5505B93D46002108464FF00000BAF180
:10078000000F00F4400005DA00EB80004FF4400158
:1007900001EA50004FEA9059B9F1010F00DDB94666
:1007A0000A9850EA4A000ED044F61050A5F2FF35E0
:1007B00045432F14B8F1000F1ED07542291E1EDDCF
:1007C000C9F100021CE0B8F1010F4FF0000001D0A8
:1007D000302103E0F24305E02154401CB042FBDB32
:1007E00030460022002121540B99C1F80880C1E94C
:1007F00000200FB0BDE8F08FBD1B6D1CDEE74A4640
:1008000000DA694206A800F05BFA06AB93E807003D
:1008100003AB83E8070050460A9904F0B5FB8DE866
:100820000700A0F500501F3800900398002D0ADD46
:1008300042F21F014A460844002303A90390684678
:1008400004F01EFE09E0A0F500504A461F380023C0
:1008500003A90390684604F028FE8DE80700000411
:10086000000C03D04FF0FF30410800E01046B8F113
:10087000000F03D00022009215461EE0751E05D41D
:1008800000F098F9303262556D1EF9D5B346012259
:10089000084302D000227F1C04E02078302801D1D8
:1008A00000227F1E002A099784D01DE0112D07DA4F
:1008B00000F080F9303262556D1C50EA0102F5D12A
:1008C000084302D00098C8B10EE00021681E05E080
:1008D000235C625C63542254401E491C8142F7DB56
:1008E000AB46A81B401E0990002004F80B000B9893
:1008F000099AC0F80880C0E9002B7AE711264FF06A
:10090000000857E72DE9F04F88460446D21D22F033
:10091000070191B0D1E90001CDE90A0104F0FCFE24
:1009200002460B98C00F01D02D2007E020688107F8
:1009300001D52B2002E0202101EAC000032A099002
:1009400001D0072A05DB03464146204600F078F92E
:100950000BE12078800601D5E06900E00620B8F1BF
:10096000650F814606D0B8F1660F18D0B8F1670F51
:1009700070D131E00020B9F1110F009001DB11239B
:1009800001E009F101030AAA01A90CA8FFF7E2FEA0
:10099000DDE90C70002609F10105834647E00120DE
:1009A0004B4600904FF000470AAA01A90CA8FFF798
:1009B000D1FEDDE90DB00C995D46002610B909F1B4
:1009C00001000D18B9EB050003D4C0F1FF3609F1A1
:1009D0000105A5EB09002BE0B9F1010F01DA4FF099
:1009E00001090020B9F1110F0090484601DD1123E3
:1009F00000E003460AAA01A90CA8FFF7ABFEDDE957
:100A00000C704D4600268346207800070AD4AB457B
:100A100000DA5D4601A8012D04DD411911F8011C21
:100A2000302907D04F4502DA17F1040F04DA01200C
:100A300082460FE06D1EEEE7002F02DCED1B3E4408
:100A400003E0781CA84200DD7D1CB81B00F1010A00
:100A50004FF000472078000703D4AA4501DB4FF090
:100A6000FF3A0021B7F1004F0DF143088DF8431014
:100A700024D002202B23002F01DA7F422D230A21CC
:100A8000021EA0F1010000DC5FB197FBF1FC97FBB7
:100A9000F1F201FB1C7C17460CF1300C08F801CD7B
:100AA000EEE7A8F1010003702188090501D5452171
:100AB00000E06521A0F1010800F8011C09980FA9C8
:100AC000A1EB0807FF1D00B10120411901EBEA70FD
:100AD000A1693844081A401EA0612078C00602D4DB
:100AE0002046AFF30080099828B1D4E9012190474E
:100AF000206A401C20622078C00622D52046AFF331
:100B000000801EE0002E04DBB34502DD01A8805DFD
:100B100000E03020D4E901219047206A401C206287
:100B2000761CAAF101005FEA000A0AD100F03EF843
:100B3000C0680168405CD4E901219047206A401CEC
:100B40002062281EA5F10105DCDC07E0D4E90121C3
:100B500018F8010B9047206A401C2062381EA7F14C
:100B60000107F3DC2046AFF30080032011B041E61B
:100B700001694A1C02610878704700B58FB0CDE961
:100B800001310021059105497944CDE90310114651
:100B90006846FFF759FC0FB000BD0000E5FFFFFFFE
:100BA0000A6802F8010B0A607047000000487047AD
:100BB0003000002030B5B0F10A0271F100034FEAB5
:100BC000900E4EEA817EB0EB0E0061EB91014FEA90
:100BD000101E4EEA017E10EB0E0041EB11114FEAA0
:100BE000102E4EEA016E10EB0E0041EB11214FEA80
:100BF000104E4EEA014E10EB0E0041EB1141401831
:100C000041F100014FEAD00040EA41704FEAD101C2
:100C10004FEA810444EA907410EB800544EB010430
:100C20006D1944EB0404521BA3414FF0000348BF6D
:100C30000A3200D530BD401C41F1000130BD00003A
:100C40002DE9F0411F46044603260168072A01F4F6
:100C5000006004DB08B116A505E016A503E008B1A5
:100C600015A500E015A521F010002060A069C01EA8
:100C7000A0610FB1401EA0612046AFF300804FB1CC
:100C8000D4E9012138469047206A401C2062C01CEC
:100C9000206206E0206AFAE7D4E9012115F8010B89
:100CA0009047761EF8D22046AFF30080BDE8F08171
:100CB0004E414E006E616E00494E4600696E660000
:100CC0002DE9F047814616468AB0354878440DC86C
:100CD0008DE80D0032487844801C03AC0DC884E8D0
:100CE0000D0041F69B300844372190FBF1F290FB58
:100CF000F1F5A5F1800501FB12041B3C02D564420D
:100D0000012000E00020DFF898A080460027FA4488
:100D1000AAF1BE0A0EE0E0070AD03246684607EBA9
:100D2000470101230AEB810104F0BFFB8DE80700B6
:100D300064107F1C002CEED1194F7F44AE3F19E0A8
:100D4000E80715D007EB04100DF1180A90E80E0023
:100D50008AE80E00C068F04201D198190890324626
:100D6000012306A903A804F0A0FB03AB83E8070056
:100D70006D10641C002DE3D14FF00103324669462B
:100D8000B8F1000F03A802D004F07AFB01E004F0F0
:100D90008CFBC9E90001C9F808200AB0BDE8F0875A
:100DA0003C4C000000487047100000207546FFF7DB
:100DB000F9FFAE4605006946534620F00700854618
:100DC00018B020B5FFF764FABDE820404FF00006E8
:100DD0004FF000074FF000084FF0000BAC46ACE8B6
:100DE000C009ACE8C009ACE8C009ACE8C00921F012
:100DF00007018D46704710B50446AFF300802046CA
:100E0000BDE81040FFF72FBA01491820ABBEFEE73E
:100E1000260002007047000080B50020C4F20200E6
:100E2000202100F073FBB0FA80F0400980BD000083
:100E300070470000014640F2BC10C2F2000001F011
:100E4000A9BA000080B540F2BC10C2F2000001F067
:100E5000B3FA043818BF012080BD000080B500F04F
:100E60000DF801281CBF012080BD40F2BC10C2F269
:100E70000000BDE8804001F005BC000080B582B0F4
:100E800001208DF80700FFF7C7FF002804BF0020EE
:100E90008DF807009DF8070002B080BD80B582B0D4
:100EA0009C4613460A46014640F2BC10C2F20000BE
:100EB000CDF800C001F0C8FD002818BF012002B025
:100EC00080BD00007047000080B582B09C4613468C
:100ED0000A46014640F2BC10C2F20000CDF800C044
:100EE00001F0D2FE002818BF012002B080BD000032
:100EF00070470000FEE7000040F2FC00C2F2000074
:100F000000F08CB840F25C10C2F2000000F086B82D
:100F10007047000072B600BFFEE7000040F2F00329
:100F2000C2F200035A7A002A1CBF0120704780B524
:100F300093F809C08646002003F80C005A7A03EBA8
:100F40008202C2F804E05A7A1A44107293F809C077
:100F50000CF101025A720CF130020A7042F63A7238
:100F6000A1F80120C87080BD70B5866D044600F000
:100F7000D9FA94F83510022928D105462068216C49
:100F8000026822F016020260426922F08002426189
:100F900009B9A16C19B1016821F00801016001686B
:100FA00021F00101016000BF20680068C00715D072
:100FB00000F0B8FA401B0628F6D320206065032015
:100FC00084F83500002184F8341070BD80206065FD
:100FD0000120002184F8341070BD00BFE06D3F2176
:100FE00001FA00F0B060012084F8350000200021F3
:100FF00084F8341070BD000090F83510022909D132
:10100000052180F835100068016821F001010160B8
:10101000002070478021416501207047F0B581B004
:101020000021009140F20C01C2F200010B68D0E9EE
:10103000166148F2B51537680822C1F64E358A4068
:101040003A42A3FB05350CD003681C68640708D539
:101050001C6824F004041C60B260426D42F001027E
:10106000426501228A403A4208D003685B691B0648
:1010700004D5B260426D42F00202426504228A4009
:101080003A4208D003681B689B0704D5B260426DE2
:1010900042F00402426510228A403A4219D00168A7
:1010A0000B681B0715D5B2600B680A685B0309D48F
:1010B000D20509D40A6822F008020A60016C29B935
:1010C00007E000BF110341D4016C11B10446884709
:1010D0002046C26D202101FA02F33B4243D0016851
:1010E0000F68FF063FD5B36090F835700B68052F89
:1010F0001CD123F016030B604B6923F080034B6176
:10110000036C0BB9836C1BB10B6823F008030B60F5
:101110003F219140B160012180F83510016D00221E
:10112000002980F8342054D158E000BF0A685B03DE
:1011300010D4D20512D40A6822F010020A600121EC
:1011400080F83510002180F8341007E0816C002908
:10115000BCD1BEE7110301D4416C00E0C16B11B1F9
:10116000044688472046416DC1B3416DC9072ED062
:10117000052180F835100168AA0A0B6823F00103E5
:101180000B60009B0133934200931AD80B68DB0776
:1011900017D0009B01339342009312D80B68DB07F2
:1011A0000FD0009B0133934200930AD80B68DB07F2
:1011B00007D0009B01339342009302D80B68DB07F2
:1011C000DFD1012180F83510002180F83410C16C86
:1011D00021B101B0BDE8F040084700BF01B0F0BD4B
:1011E0002DE9F041044600F09DF9ECB105460220DE
:1011F00084F835000020216884F83400086820F065
:101200000100086021680868C00711D000F08AF961
:10121000401B0528F6D9032520230320636584F8A5
:101220003550BDE8F08100BF0120BDE8F08100BF6E
:10123000086848F23F02CFF21002D4E9013500EA13
:10124000020C04F10C0898E8C10143EA0C032B439B
:101250001843D4E9072E304338431043626A40EA0A
:101260000E00042A40EA08031CD1206BD4E90A2EA0
:1012700040EA0E00184308604869BEF1000F20F0F4
:10128000030040EA020040F0040C11D0B8F5005F02
:1012900036D0B8F1000F45D1022A46D0012A3BD002
:1012A00032B942E00B60486920F0070040EA020CC6
:1012B00001F0F8004AF6AB221038CAF6AA22A0FBC9
:1012C00002231A0945F65013C1F814C0C0F60003F2
:1012D0009A5C40F2FF335F284FF03F0021EA0301A0
:1012E00000FA02F088BF0431C4E9161288600023B6
:1012F00001250020636584F83550BDE8F08100BF0A
:10130000032AD5D8012540230120DFE802F0030E8F
:10131000030500BF82E700BFAEF1C070B0FA80F0F5
:10132000400904E0032A04D3C2D1CEF300600028B0
:10133000BED0012540230120636584F83550BDE807
:10134000F0810000B0B5044600F0ECF8054640F22C
:101350000000C2F200000078611C18BF044400BF06
:1013600000F0E0F8401BA042FAD3B0BD2DE9F04FE9
:1013700083B000F1200200F13E4741F600450092A3
:1013800007F1FF77C4F2020508224FEAB726A84208
:1013900008BF072200254FF000084FF00009072E74
:1013A00038BF4FEAB72201920AE000BF09F10109F4
:1013B00008F10208B9F1100F05F1040500F0A28050
:1013C0000F68012202FA09FE17EA0E0AEED0D1F8E0
:1013D00004C003220CF003077E1E02FA08F4012E5B
:1013E0006FEA040B12D88468CE6804EA0B0406FA8C
:1013F00008F634438460446824EA0E06CCF30014F3
:1014000004FA09F42643466004E000BF032F01D12B
:1014100003271EE0C6688C6806EA0B0604FA08F487
:101420002643022FC66014D16FF00302009E02EA29
:10143000590756F807C005F01C040F220B69A2409B
:101440002CEA0202A3401A43F251D1F804C00CF076
:101450000307026807FA08F302EA0B021A431CF4B6
:10146000403F0260A2D0002243F644030292C4F23D
:1014700002031A6843F6004442F480421A601A6874
:10148000C4F2010402F480420292029A29F003029B
:101490004FF6084C2244CFF6FF7C52F80C3005F092
:1014A0000C070F26BE40B343019E06FA07F73B43E5
:1014B00042F80C30A2684B6842EA0A0743F60C4C2B
:1014C000DE0258BF22EA0A07A760C4F2010CDCF86A
:1014D00000209E0242EA0A0758BF22EA0A07CCF817
:1014E000007062689E0342EA0A0758BF22EA0A07B0
:1014F00067602268DB0342EA0A0758BF22EA0A074C
:10150000276053E703B0BDE8F08F00000069084092
:1015100018BF012070470000002A08BF090481613C
:101520007047000040F23430C2F20000006870479B
:1015300040F2000040F23431C2F20000C2F2000179
:1015400000780A68104408607047000080B543F6D0
:101550000040C4F20200016841F4007101600168BA
:1015600041F480610160016841F4807101600320F1
:1015700000F086F80F2000F005F800F027F80020B2
:1015800080BD000070B540F20006C2F2000640F2D5
:101590000C013278C2F200014FF47A730968B3FB90
:1015A000F2F20446B1FBF2F1084601F089FC0F2C7F
:1015B0004FF0010508D838B94FF0FF30214600221E
:1015C000002500F031F87460284670BD82B000201C
:1015D00043F640010190C4F202014A6842F480429D
:1015E0004A604A6802F480420192019A00900868B9
:1015F00040F080500860086800F08050009000982B
:1016000002B07047002848BF704700F01F01012258
:1016100002FA01F11C2202EAD0004EF20012CEF2D0
:10162000000281507047000010B54EF60C5CCEF2FF
:10163000000CDCF80030C3F3022E8EF00704042CFB
:1016400028BF0424BEF103034FF0FF3E0EFA04F45A
:1016500038BF0023A14399400EFA03F39A43114384
:1016600000F00F0200F160430901043A03F56443FE
:101670006244002848BF02F10C03197010BD00003D
:101680004EF60C51CEF200010A684FF6FF031A40E5
:1016900060F30A2242F0806040F0FD7008607047FD
:1016A000F0B581B00446006810F0050F2DD0682712
:1016B000C4F2472743F670060020C4F202063860E1
:1016C000FFF730FF054600BF56F8700C000105D546
:1016D000FFF728FF401B0228F6D93FE0D4E90101BB
:1016E000090741EA8010706101203860FFF71AFF96
:1016F000054600BF56F8700C000105D4FFF712FF35
:10170000401B0228F6D929E0206880074FF000002E
:1017100058D543F67006C4F20206009056F8300C15
:1017200047F2000740F0805046F8300C56F8300C75
:10173000C4F2000700F0805000900098386840F430
:1017400080703860FFF7EEFE054600BF3868C005C0
:1017500008D4FFF7E7FE401B0228F7D9032001B0A9
:10176000F0BD00BF306810F4407013D0E16801F4A0
:10177000407188420ED0306840F64061C4F2472183
:10178000012220F440700A6000220A603060306854
:10179000C00719D1E06856F8681C4FF6FF4300F403
:1017A000407221F4F811C0F6FF730340B2F5407F98
:1017B00008BF194346F8681C31686FF31F300843AF
:1017C0003060002001B0F0BDFFF7ACFE054641F2ED
:1017D000883700BF30688007DCD4FFF7A3FE401BCA
:1017E000B8424FF00300F5D9ECE70000002804BF31
:1017F000012070472DE9F04143F60808C4F20208C1
:101800000446D8F8F8030D4600F00700884207D2D6
:1018100088F8F853D8F8F80300F00700A84277D109
:101820002068810717D5410705D5D8F8001041F485
:10183000E051C8F80010010705D5D8F8001041F4B0
:101840006041C8F80010D8F80010A26821F0F0013B
:101850001143C8F80010C00740D1D8F8F80300F0D1
:101860000700A84207D988F8F853D8F8F80300F021
:101870000700A8424CD12068410707D5D8F80010CE
:10188000E26821F4E0511143C8F80010000708D5C0
:10189000D8F80000216920F4604040EAC100C8F88F
:1018A000000000F07DF8D8F8001045F62412C1F3CE
:1018B0000311C0F60002515C40F20C0220FA01F163
:1018C00040F20400C2F200000068C2F2000211609F
:1018D000FFF758FE0020BDE8F08100BF6068811E60
:1018E000022907D258F8081C89015CBF0120BDE815
:1018F000F08111E0012807D158F8081C89035CBF6A
:101900000120BDE8F08107E058F8081C890703D4DE
:101910000120BDE8F08100BFD8F8001021F00301DC
:101920000843C8F80000FFF7FDFD064641F288377E
:10193000D8F80000616800F00C00B0EB810F8CD08B
:10194000FFF7F0FD801BB842F2D90320BDE8F0811B
:1019500040F20C0043F60801C2F20000C4F202019A
:101960000068096845F63412C1F38221C0F600020E
:10197000515CC8407047000040F20C0043F608017B
:10198000C2F20000C4F202010068096845F6341290
:10199000C1F34231C0F60002515CC84070470000FC
:1019A00010B543F60404C4F20204606800F00C01B0
:1019B00042F200400829C0F2F40007D0042918BF01
:1019C00010BD41F20020C0F27A0010BD216801F084
:1019D0003F02216823684902C3F3881106D4A1FBA2
:1019E00000010023FEF766FC07E000BF41F2002083
:1019F000C0F27A004843B0FBF2F021680222C1F342
:101A0000014102EB4101B0FBF1F010BD002804BF21
:101A1000012070472DE9F04182B00446007843F67A
:101A20000006C007C4F202060CD0B06800F00C003B
:101A3000042840F081803068800303D56068002866
:101A400000F06881207880071BD5B06810F00C0F7B
:101A500009D0B06800F00C00082840F0878070685A
:101A6000400200F183803068800703D5E0680128D8
:101A700040F050813068216920F0F80040EAC10050
:101A800030602078000713D4207840072AD4A56955
:101A9000002D00F03A81B06800F00C00082840F0FA
:101AA000A580012D40F00E81012002B0BDE8F0813B
:101AB0006069002800F082800020C4F247200121E4
:101AC000C0F8801EFFF72EFD054600BF706F80072F
:101AD000DAD4FFF727FD401B0228F7D9032002B014
:101AE000BDE8F081306C5FEAC0080AD400200190A4
:101AF000306C40F080503064306C00F080500190C9
:101B0000019847F20007C4F200073868C00547D4BF
:101B1000386840F480703860FFF704FD054600BF68
:101B20003868C0053CD4FFF7FDFC401B0228F7D9FC
:101B3000032002B0BDE8F081B06800F00C00082876
:101B400003D1706840023FF576AF61683068B1F547
:101B5000803F07D0B1F5A02F40F09A8040F480205C
:101B60003060306840F4803030609AE0E0680028EF
:101B700040F20000C4F247205CD001210160FFF771
:101B8000D1FC0546306880073FF574AFFFF7CAFC0B
:101B9000401B0228F6D9032002B0BDE8F08100BF47
:101BA000A168306F012905D0052955D140F0040006
:101BB0003067306F40F00100306756E00020C4F21B
:101BC00047200021C0F8801EFFF7ACFC054600BF8F
:101BD000706F80077FF558AFFFF7A4FC401B022809
:101BE000F6D9032002B0BDE8F08100BF0027C4F29F
:101BF000472700203866FFF795FC022D05460DD1DA
:101C00003068800140F18A80FFF78CFC401B02287D
:101C10004FF00300F4D902B0BDE8F08130688001D4
:101C200073D5FFF77FFC401B02284FF00300F5D966
:101C3000F1E700BF00210160FFF774FC054600BF1B
:101C4000306880077FF51DAFFFF76CFC401B022852
:101C50004FF00300F4D9DEE720F001003067306F69
:101C6000002920F0040030677AD0FFF75BFC0546BE
:101C700041F28837306F800700F18480FFF752FC13
:101C8000401BB842F6D9032002B0BDE8F08100BF86
:101C900020F4803030603068002920F480203060EB
:101CA0007AD0FFF73FFC0546306880033FF5CAAEA7
:101CB000FFF738FC401B6428F6D9032002B0BDE8CA
:101CC000F08100BF7068E16900F480028A4221D18E
:101CD000216A00F03F028A421CD147F6C071626A55
:101CE0000140B1EB821F15D1A16A4FF6FF73C90302
:101CF000994300F44032A1F580318A420AD1E16A69
:101D000000F07060B0EB016F04D1002002B0BDE8BC
:101D1000F08100BF012002B0BDE8F08104F11C0594
:101D20002FCD084340EA8210D9034FF6FF7291434A
:101D3000A1F5803140EA05600843706001203866F3
:101D4000FFF7F0FB044600BF30688001DDD4FFF7E9
:101D5000E9FB001B02284FF00300F5D95BE700BF49
:101D6000FFF7E0FB054641F2883700BF306F800780
:101D700008D5FFF7D7FB401BB8424FF00300F5D959
:101D800049E700BFB8F1000F3FF581AE306C20F09D
:101D9000805030647BE600BFFFF7C4FB054600BF00
:101DA000306880037FF54EAEFFF7BCFB401B642814
:101DB0004FF00300F4D92EE7002804BF012070473C
:101DC000B0B50446407F20B900202077204600F0BF
:101DD00071F8022060772168C868C0065ED4CA2006
:101DE000486253204862C868400615D4C86840F06D
:101DF0008000C860FFF796FB2168CA6852060BD4C2
:101E0000054600BFFFF78EFB401BB0F57A7F49D82F
:101E10002168C8684006F5D588684FF6BF72CFF6CE
:101E20008F7210408860D4E9010CD4E903356269EF
:101E300028438D681043284388600B61086940EA95
:101E40000C400861C86820F08000C860886880067F
:101E50001AD447F65F70C0F20100C860FFF762FB5A
:101E6000054600BF2168C86880060DD4FFF75AFBFD
:101E7000401BB0F57A7FF5D9042060772068FF21F8
:101E800041620120B0BD00BF086C20F480200864CE
:101E9000A0690A6C10430864FF2048620120607743
:101EA0000020B0BD042060772068C168FF21416236
:101EB0000120B0BD80B584B0006842F60002C4F2D3
:101EC0000002002190420291019101D004B080BD36
:101ED000022000904FF4007003906846FFF7E0FB8B
:101EE000002818BFFFF716F840F63C60C4F2472000
:101EF0000121016004B080BD2DE9F0410446007F5E
:101F000001284FF0020008BFBDE8F08101232377CC
:101F100060773AB14878CA788E78000240EA024881
:101F200046E000BF48784FF0CD0CC20642BF00F03B
:101F3000EF000A304870CA788E78A2F10A07FDB225
:101F400005FB0CF5ED0A05EB8503A7EB4303A0F1B8
:101F50000A0703EB0513FDB25FFA82FE05FB0CF5E1
:101F6000BEF1090F88BF03F11002ED0A5FFA82FE8D
:101F700005EB8502A7EB4202C3B202EB0512092B67
:101F800088BF02F11000A6F10A02D3B203FB0CF3E2
:101F9000C0B2DB0A000203EB830740EA0E48F0B24E
:101FA000A2EB470202EB0312092888BF02F11006D8
:101FB0000F782168CA20486253204862C8684006EA
:101FC00014D4C86840F08000C860FFF7ABFA2168FD
:101FD000CA6852060AD40546FFF7A4FA401BB0F5BA
:101FE0007A7F35D82168C8684006F5D5F0B240EA56
:101FF00008007A0320F0C00010434860C86820F051
:102000008000C8608868800618D447F65F70C0F208
:102010000100C860FFF786FA054600BF2168C8685E
:1020200080060BD4FFF77EFA401BB0F57A7FF5D916
:10203000042060772168012003E000BF0120607761
:102040000020FF224A6200212177BDE8F08100BF15
:10205000042060772168C8680120F2E72DE9F04785
:102060000446007F01284FF0020008BFBDE8F0875A
:102070000D460121217760772168886832B14006DA
:102080000CD44FF0000885F803800AE0400611D414
:102090004FF0000885F803800FE000BFE8784FEAB2
:1020A00080586A78287895F802A0120242EA00491E
:1020B00045E000BFE8784FEA805828784FF0CD0E11
:1020C000A0F10A06F3B203FB0EF36A78DB0A03EB16
:1020D0008307A6EB4706A2F10A0706EB0313FEB23D
:1020E0005FFA80FC06FB0EF695F802A0BCF1090F22
:1020F00088BF03F11000F60A5FFA80FC06EB860049
:10210000D3B2A7EB400000EB0610092B88BF00F10B
:102110001002D0B2AAF10A02D3B203FB0EF3DB0A1B
:10212000000203EB830740EA0C495FFA8AF0A2EB56
:10213000470202EB0312092888BF02F1100ACA20E5
:10214000486253204862C868400615D4C86840F009
:102150008000C860FFF7E6F92168CA6852060BD410
:10216000064600BFFFF7DEF9801BB0F57A7F43D843
:102170002168C8684006F5D55FFA8AF040EA090090
:1021800047F67F7240EA0800C0F27F021040086004
:10219000886820F480208860D5E903028B681043AA
:1021A00018438860C86820F08000C860886880068E
:1021B00018D447F65F70C0F20100C860FFF7B2F9AB
:1021C000054600BF2168C86880060BD4FFF7AAF94E
:1021D000401BB0F57A7FF5D9042060772168012093
:1021E00003E000BF012060770020FF224A62002147
:1021F0002177BDE8F08700BF042060772168C868B8
:102200000120F2E7FEF714BE7047000080B5D0E968
:10221000193ED0F844C09A0F0A70C3F383624A7023
:10222000C3F301628A701A0CCA701A0A0A714FEA63
:102230001E524B71CA80CEF303420A72CEF3C032F3
:102240004A72CEF380328A72CEF34032CA72CEF333
:1022500000320A730022BCF1010F4A7336D0BCF180
:10226000000F40F0878040F6FC72C36E02EA8E02D7
:1022700042EA93720A61C26EC2F3C2630B75C2F383
:1022800002634B75C2F342538B75C2F38243CB7525
:10229000C2F3C2330B76D1F810C00B7E0CF1010CE7
:1022A00003F0070302330CFA03FCC0F854C00B7AA6
:1022B00003F00F0E012303FA0EF383655B0A03FBA1
:1022C0000CF3C3654FF4007312E000BFB0F86E204A
:1022D0000EF03F0342EA03420A610A694FF4806349
:1022E00003EB82224FF40073C0E91523C265C26E6E
:1022F0000366C2F380334B76C2F3C61302F07F024B
:102300008B76CA76026FD00F0877C2F34170487798
:10231000C2F382608877C2F38350C877C2F340501B
:1023200081F820000020C2F3004381F8210081F8E9
:102330002230C2F3C03381F82330C2F3803381F8F6
:102340002430C2F3403381F82530C2F3003381F8E2
:102350002630C2F3812381F82730C2F30123D2B2A1
:10236000520881F8283081F82920012281F82A209A
:1023700080BD00BF016840F2FF52C0F240028A6394
:10238000816B41F080518163012180F8341001207C
:1023900080BD000080B500F1440E9EE80C5081E83D
:1023A0000C10426DC1E903E2D0E91623C1E905230F
:1023B000026E0020CA6180BD10B5016D0446006840
:1023C000090402F019F828B1A16B0843A0630020AA
:1023D00010BD00BF2068002101F03AFEC0F3432089
:1023E00010BD0000F0B581B004460068256B416B5C
:1023F000090405F008012BD551B3E56A2DB3A66A8F
:1024000001F04CFE3060206801F048FE70602068EA
:1024100001F044FEB060206801F040FEF0602068EA
:1024200001F03CFE3061206801F038FE70612068E8
:1024300001F034FEB061206801F030FEF06106F179
:102440002000A5F12001C4E90A0101B0F0BD00BFE0
:10245000426BD20540D4426B520465D5002963D04B
:10246000666A002EF1D0276A6D46396800912946C8
:1024700001F018FE796820680091294601F012FEEB
:10248000B96820680091294601F00CFEF9682068BF
:102490000091294601F006FE39692068009129461D
:1024A00001F000FE796920680091294601F0FAFDEB
:1024B000B96920680091294601F0F4FDF8692946C0
:1024C00000902068203701F0EDFDA6F12000C4E95E
:1024D000087001B0F0BD00BF4FF480718163C16B23
:1024E0004CF23A329143C163C16A2A0721F00101DB
:1024F000C16259D42906A8D5A90608D501F0ECFF78
:1025000028B1A16B0843A0632046FFF77DFEA80712
:102510009BD12068C16A21F00801C16201212046D7
:1025200084F834105EE000BF416B40F23A22114261
:102530003FF48BAF416B89075AD4416B09075ED4D6
:10254000416B890662D4416BC90666D4416B89052B
:1025500003D5A16B41F00801A16340F23A71816398
:10256000C16B40F23A329143C16301F0B5FFA16BF8
:1025700008432907A06359D428067FF566AF15F0F4
:10258000300F5FD0E06B44F20971C0F600010165C5
:10259000FEF732FD00283FF458AFE06B01B0BDE814
:1025A000F04002F0B1B800BF15F0220F08D001F0E2
:1025B00093FF28B1A16B0843A0632046FFF724FED8
:1025C000206840F23A518163012084F834000020F1
:1025D000A9072063204605D001B0BDE8F04000F017
:1025E0004FBB00BF01B0BDE8F04000F04BBB00BFE7
:1025F000A16B41F00201A163416B0907A0D5A16B5A
:1026000041F00801A163416B89069CD5A16B41F0A3
:102610002001A163416BC90698D5A16B41F010015F
:10262000A163416B890594D497E700BF0120002185
:1026300084F834002046216301B0BDE8F040FFF784
:10264000E3BD00BFA80711D0206C44F29D61C0F625
:1026500000010165FEF7D0FC00283FF4F6AE206CC7
:1026600001B0BDE8F04002F019B800BF0021012020
:10267000A16384F834002046216301B0BDE8F04036
:10268000FFF7C0BD002804BF0120704710B5044605
:1026900090F8340020B900202077204600F020F97F
:1026A000032084F83400204600F00CF800284FF096
:1026B000010018BF10BD0021A163216384F834001C
:1026C000002010BDF0B58FB00446006876210026CA
:1026D00002910021002200230096019601F0C2FC25
:1026E0004FF0010510B128460FB0F0BD48F2A00729
:1026F000C4F225273E60206801F0CAFC02203D603C
:10270000FEF720FE0496206801F032FD40B101255D
:1027100084F83450A16B0843A06328460FB0F0BD85
:10272000206801F055FD58B120680021A16401F036
:102730001FFD0028EBD1A06C012803D00AE000BFE8
:102740000120A0642068002101F0B2FC10B14FF01C
:102750008050DCE704984FF6FE76B0421ED8002584
:10276000CCF210152068002101F0A2FC0028CED187
:102770002068294601F0A8FC0028E8D12068002143
:1027800001F066FC0499013104910499B14202D828
:10279000B0F1FF3FE6DCC0F3807000E00020049958
:1027A0004FF6FF72914203D34FF08070AFE700BF46
:1027B000606420680125ADF80E5001F045FC88B139
:1027C000606C032812D12068042101F041FC000D47
:1027D000E06404A92046FFF719FD002854D04FF00B
:1027E000805095E74FF0806092E700BF206801F0CD
:1027F00067FD00287FF48CAF2068002101F028FCE1
:10280000216860670846042101F022FC2168A06766
:102810000846082101F01CFC2168E06708460C21ED
:1028200001F016FC616CC4F880000329CBD020684D
:102830000DF10E0101F0ECFD00287FF469AF606C32
:102840000328C0D0BDF80E1020682165090401F0EE
:1028500085FD00287FF45CAF2068002101F0F8FBC3
:10286000216860660846042101F0F2FB2168A06639
:102870000846082101F0ECFB2168E06608460C21BF
:1028800001F0E6FB20679EE7216D20680A04002323
:1028900001F00AFD00287FF43BAF94E88F00D4E9F3
:1028A0000565CDE90076029501F0DCFB20684FF468
:1028B000007101F051FC78B1216840F2FF52C0F282
:1028C00040028A63A16B01250843A06384F8345059
:1028D00028460FB0F0BD00BF002528460FB0F0BD60
:1028E0002DE9F04F87B0044642F600470068C4F275
:1028F00001070026B8420696CDE9046603960296C3
:1029000002D007B0BDE8F08F43F630000196C4F264
:102910000200416902AD41F400614161416946F242
:10292000584A01F4006101910199019601684FF044
:10293000020841F00401016001684FF0030901F051
:10294000040101910199019601684FF00C0B41F0CF
:10295000080101600068294600F008000190019814
:102960004FF48850029007F55C40C4F2020ACDE9AA
:102970000386CDF81490CDF818B0FEF7F7FC0420CC
:10298000CDE9020804A880E8400A07F5604029461E
:10299000FEF7ECFC40F2FC05C2F200054FF00062CD
:1029A0004FF480402021C5E9012605F10C02C5F84D
:1029B00000A04FF4805A4FF4806782E8C004C5E954
:1029C00006014FF400084FF4001B2E62042628462F
:1029D000C5E90969C5E90B8BFEF702FC002818BFA1
:1029E000FEF798FA46F258402564AC63C4F2020040
:1029F00040F25C154830C2F2000528604FF00060DC
:102A00002B1D4021002283E887044FF48040A861F9
:102A1000202005F11C0181E845022846C5E90B8B01
:102A2000FEF7DEFB002818BFFEF774FA3120002104
:102A30000022E563AC63FEF7F7FD3120FEF7E2FD0F
:102A400007B0BDE8F08F00002DE9F04786B01F46C3
:102A500016460D460446FEF765FD9DB1804694F886
:102A60003400012816D10021A163E06DBA19824219
:102A700018D9A06B40F00070A063012006B0BDE83B
:102A8000F08700BFA06B40F00060A063012006B09B
:102A9000BDE8F087A06B40F00050A063012006B0B5
:102AA000BDE8F087032084F83400626C2068012AB6
:102AB0004FF0FF32C16218BF760200927A024FF0E7
:102AC000020901929022CDE903914FF0010A694673
:102AD0000292CDF814A001F0A3FA022F18D3C4F883
:102AE00030902068314601F0C7FBC8B1216840F240
:102AF000FF52C0F240028A63A16B0843A063012029
:102B0000002184F83400216306B0BDE8F08700BFDF
:102B1000C4F830A02068314601F0BAFB0028E5D1A6
:102B2000DDF83890019E40F22A3A05E0FEF7FAFC03
:102B3000A0EB0800484541D22068426B416B12EA85
:102B40000A0F25D10904F1D5002EEFD001F0A6FA25
:102B50002860206801F0A2FA6860206801F09EFAFF
:102B6000A860206801F09AFAE860206801F096FAFF
:102B70002861206801F092FA6861206801F08EFAFD
:102B8000A861206801F08AFAE8612035203ECDE78F
:102B9000022F27D311F4807124D0616C032921D036
:102BA00001F09AFC01462068E1B140F2FF52C0F208
:102BB00040028263A06B0843A0E700BF206840F298
:102BC000FF51C0F240018163A06B40F00040A06360
:102BD000012084F8340000202063032006B0BDE803
:102BE000F08700BF416B09075CBF416B5FEA815111
:102BF00008D540F2FF51C0F240018163A06B40F064
:102C000008007BE7416B89071CD4416B890623D4FC
:102C10002068416B890229D546B301F03FFA45F897
:102C2000040B043EFEF77EFCA0EB08004845EFD302
:102C3000206840F2FF51C0F240018163A06B40F078
:102C400000405BE740F2FF51C0F240018163A06B9E
:102C500040F0020052E700BF40F2FF51C0F24001D5
:102C60008163A06B40F0200048E700BF40F23A517A
:102C70008163012084F83400002006B0BDE8F087AD
:102C8000FEF720B9FEF734B92DE9F04F87B098462A
:102C900015460E460446FEF745FC9EB1824694F862
:102CA0003400012816D10021A163E06D08EB050274
:102CB000824217D9A06B40F00070A063012007B0DA
:102CC000BDE8F08FA06B40F00060A063012007B06A
:102CD000BDE8F08FA06B40F00050A063012007B06A
:102CE000BDE8F08F032084F83400626C2068012A6C
:102CF0004FF0FF32C16218BF6D0201924FEA4822C5
:102D000002929022CDE9032105910121069101A9AA
:102D100001F086F9B8F1020F18D320202063206853
:102D2000294601F0E9FBC8B1216840F2FF52C0F228
:102D300040028A63A16B0843A0630120002184F84C
:102D40003400216307B0BDE8F08F00BF102020637E
:102D50002068294601F0DCFB0028E5D1DDF8409031
:102D6000029F40F21A3B6D4606E000BFFEF7DAFB19
:102D7000A0EB0A0048455DD22068426B416B12EA25
:102D80000B0F41D14904F1D5002FEFD031780091DC
:102D9000727841EA02210091B27841EA0241009141
:102DA000F27841EA02610091294601F07BF97168ED
:102DB00020680091294601F075F9B16820680091FA
:102DC000294601F06FF9F16820680091294601F069
:102DD00069F9316920680091294601F063F9716948
:102DE00020680091294601F05DF9B16920680091E1
:102DF000294601F057F9F0692946009020682036ED
:102E000001F050F9203FB1E7B8F1020F24D311F4DB
:102E1000807121D0616C03291ED001F05DFB014659
:102E20002068C9B140F2FF52C0F240028263A06B39
:102E3000084381E7206840F2FF51C0F240018163FE
:102E4000A06BA063012084F83400002020630320DD
:102E500007B0BDE8F08F00BF416B09075CBF416B55
:102E60005FEA815108D540F2FF51C0F24001816311
:102E7000A06B40F008005FE7416B89070CD4416B01
:102E8000C90613D440F23A518163012084F834001A
:102E9000002007B0BDE8F08F40F2FF51C0F24001C2
:102EA0008163A06B40F0020046E700BF40F2FF5193
:102EB000C0F240018163A06B40F010003CE70000CD
:102EC000411E0020B0EB116F1CBF012070474EF275
:102ED0001002CEF2000251604EF62351CEF20001F4
:102EE000F0230B700721906011607047704700005D
:102EF00070470000002804BF0120704710B5044649
:102F000090F83D0028B9002084F83C00204600F0ED
:102F10001FF8022084F83D002068211D01F01EFDED
:102F2000012084F8460084F83E0084F83F0084F8CD
:102F3000400084F8410084F8420084F8430084F89B
:102F4000440084F8450084F83D00002010BD0000D6
:102F5000006841F60041C4F20001884218BF704782
:102F600080B582B00020019043F64000C4F2020018
:102F70000168002241F0800101600068052100F035
:102F80008000019001982C20FEF74EFB2C2002B00F
:102F9000BDE88040FEF736BB90F83D1001291CBF0C
:102FA00001207047022180F83D10006841F2FF7255
:102FB000C168C4F20002904241F00101C1600DDC21
:102FC00040F2FF71C4F20001884215DCB0F1804F7D
:102FD0002AD040F20041C4F2000123E040F2FF3168
:102FE000C4F20101884213DC41F60001C4F2000181
:102FF000884219D0002113E040F60001C4F200011C
:10300000884211D040F60041C4F200010AE000BF3E
:1030100044F20001C4F20101884205D040F20041AF
:10302000C4F20101884206D1816801F00701062936
:1030300004BF00207047016841F0010101600020D9
:10304000704700007047000070B504460068C5680E
:103050000669B10716D515F0020113D06FF0020111
:103060000161012121778069800703D02046FFF7A5
:10307000E9FF05E0204600F069F9204600F098F9E4
:1030800000202077700719D515F0040016D02068AD
:103090006FF00401016102212177806910F4407F03
:1030A00004D02046FFF7CEFF06E000BF204600F028
:1030B0004DF9204600F07CF900202077300717D525
:1030C00015F0080014D020686FF008010161042198
:1030D0002177C069800703D02046FFF7B3FF05E0E2
:1030E000204600F033F9204600F062F900202077F6
:1030F000F00619D515F0100016D020686FF01001F9
:10310000016108212177C06910F4407F04D0204676
:10311000FFF798FF06E000BF204600F017F92046B1
:1031200000F046F900202077F00718BF15F00100E5
:1031300002D1300609D412E020686FF0010101616C
:10314000204600F037F9300609D515F0800006D08A
:1031500020686FF0800101612046FFF7C7FE70060E
:1031600009D515F0400006D020686FF040010161DC
:10317000204600F075F9B00658BF70BD15F020006C
:1031800008D021686FF0200220460A61BDE8704037
:10319000FFF7AEBE70BD000090F83C30012B04BFBD
:1031A000022070474FEAB202032A00F2C980F0B54C
:1031B000DFE802F0028A3264026840F20045136AD6
:1031C000166A23F0020326F001061662D2F804E024
:1031D000D2F818C08E6842F48064C4F20105AC4293
:1031E00043EA060305D1CE6823F00C0326F004065B
:1031F00033430E68AC4206D1D1E905472EF4407541
:10320000254345EA070E2CF073073743C2F804E064
:1032100097614968516389E0026840F20045136A8A
:10322000176A23F4007327F480771762D2F804E05A
:10323000D2F81CC08E6842F48064C4F20105AC422E
:1032400043EA062307D1CE6840F2FF47360223F453
:103250004063BE4333430E68AC4206D1D1E9054515
:103260002EF44057254347EA051E2CF073073743D9
:10327000C2F804E0D7614968D16357E0026840F2C0
:103280000047D2F820E0136A42F4806623F48053AA
:1032900013625368D4690D68D1F808C0C4F20107FD
:1032A000BE4204D14E6923F4804343EA861324F4DA
:1032B000E64646EA05265360D66149682EF4005773
:1032C00047EA0C33116431E0026840F20045136AAA
:1032D000176A23F0200327F010071762D2F804E0E2
:1032E000D2F818C08E6842F48064C4F20105AC4282
:1032F00043EA061307D1CE686FF0400723F0C003FE
:1033000007EA061633430E68AC4206D1D1E90545FB
:103310002EF44067254347EA850E2CF4E64747EA3A
:103320000627C2F804E0976149689163002113629F
:10333000BDE8F040002280F83C200846704700BFFE
:103340000121002280F83C200846704770470000A9
:10335000002804BF0120704710B5044690F83D00D6
:1033600028B9002084F83C00204600F01FF8022015
:1033700084F83D002068211D01F0F0FA012084F856
:10338000460084F83E0084F83F0084F8400084F84A
:10339000410084F8420084F8430084F8440084F833
:1033A000450084F83D00002010BD0000704700007B
:1033B00070470000006841F60041C4F200018842F5
:1033C00018BF7047B0B52DED028B9EB040F270056E
:1033D000C2F2000595ED020A9FED1C1A30EE010ABB
:1033E00085ED020A95ED030AB6EE001A30EE010AE9
:1033F00085ED030A287818B3687808B36868013047
:1034000068606C68A86802F0C3F941EC180BE868C2
:1034100002F0BEF941EC100B05AD0DA12846224685
:103420008DED008B8DED020BFCF7BCFF82B240F2FC
:103430004020C2F2000029464FF0FF3300F00EFD9D
:103440001EB0BDEC028BBDE8B04070470000C84222
:1034500025752C252E33662C252E33660D0A00008B
:10346000704700007047000070470000B0B582B0A0
:1034700001680A68CC684B6902F02F05202D04F022
:10348000200505D125B102B0BDE8B04001F00EBB6A
:103490005FEA027C1EBF03F0010E04F4907313EB8D
:1034A0000E0341D1036BD50618D5012B16D114F0AC
:1034B000100313D0002201920A6801924A68019217
:1034C000019A496949064BD4818DC28DC38D002B69
:1034D00018BF914240F0F48102B0B0BD13062DD563
:1034E00014F080032AD090F84120212AF4D1826878
:1034F000B2F5805F03D10269002A00F06782026A98
:10350000531C036212784A60C28C013A1304C284CD
:10351000E2D1C86820F08000C860C86840F0400070
:10352000C86002B0B0BD00BFD30718BF14F48073E9
:1035300040F0D080530700F1D380D8E05206CBD5BD
:1035400014F04002C8D0CA6822F04002CA602021AC
:1035500080F8411002B0BDE8B04000F049BD00BFA6
:10356000C16B0A68526893B2002BB5D0858DAB420F
:10357000B2D2C285C969B1F5807F00F0A080016830
:1035800051E8031F026821F4807142E80313DBB1A4
:10359000016851E8031F026821F4807142E80313B7
:1035A00093B1016851E8031F026821F4807142E879
:1035B00003134BB1016851E8031F026821F48071C5
:1035C00042E80313002BDAD1016851E8051F0268B5
:1035D00021F0010142E80513BBB3016851E8051F62
:1035E000026821F0010142E8051373B3016851E854
:1035F000051F026821F0010142E805132BB30168A1
:1036000051E8051F026821F0010142E80513002B73
:10361000DAD11AE0016851E8051F026821F0400183
:1036200042E80513DBB1016851E8051F026821F08B
:10363000400142E8051393B1016851E8051F026893
:1036400021F0400142E805134BB1016851E8051F24
:10365000026821F0400142E80513002BDAD1202155
:1036600080F8421000210163016851E8031F0268DD
:1036700021F0100142E80313DBB1016851E8031F98
:10368000026821F0100142E8031393B1016851E888
:10369000031F026821F0100142E803134BB10168D7
:1036A00051E8031F026821F0100142E80313002BC8
:1036B000DAD1C16B04460846FDF756FC20460221CC
:1036C0004163818DC28D891A89B202B0BDE8B040D4
:1036D000FFF7C8BE436C43F001034364530706D5AC
:1036E000BEF1000F03D0436C43F002034364930721
:1036F00006D5BEF1000F03D0436C43F004034364CE
:10370000BCF1000F06D55EEA050303D0436C43F01D
:1037100008034364436C002B3FF4DEAE920605D5EC
:1037200025B1044601F0C2F9216820464969426C7E
:1037300001F0400102F00802891800F0B98000BFD2
:10374000016851E8031F026821F4907142E80313F5
:10375000BBB3016851E8031F026821F4907142E88D
:10376000031373B3016851E8031F026821F49071D9
:1037700042E803132BB3016851E8031F026821F4E8
:10378000907142E80313002BDAD11AE0016851E886
:10379000051F026821F0010142E80513DBB1016851
:1037A00051E8051F026821F0010142E8051393B1B9
:1037B000016851E8051F026821F0010142E8051384
:1037C0004BB1016851E8051F026821F0010142E890
:1037D0000513002BDAD1016B012924D1016851E8CE
:1037E000031F026821F0100142E80313DBB10168F6
:1037F00051E8031F026821F0100142E8031393B15E
:10380000016851E8031F026821F0100142E8031328
:103810004BB1016851E8031F026821F0100142E832
:103820000313002BDAD1202180F84210002101631C
:1038300001684969490640F1C380016851E8051FE4
:10384000026821F0400142E80513DBB1016851E84C
:10385000051F026821F0400142E8051393B1016899
:1038600051E8051F026821F0400142E805134BB101
:10387000016851E8051F026821F0400142E8051384
:10388000002BDAD1C16B002900F09A8044F6A12206
:10389000C0F60002044608460A65FDF7ADFB0028A5
:1038A0003FF41AAEE06B016D02B0BDE8B0400847CE
:1038B0000446FFF7D9FD0020606402B0B0BD00BF30
:1038C000891A00BF026852E8032F036822F490723D
:1038D00043E80325BDB3026852E8032F036822F4CE
:1038E000907243E8032575B3026852E8032F03681A
:1038F00022F4907243E803252DB3026852E8032FA7
:10390000036822F4907243E80325002DDAD11AE00F
:10391000026852E8052F036822F0010243E80525FA
:10392000DDB1026852E8052F036822F0010243E886
:10393000052595B1026852E8052F036822F00102BF
:1039400043E805254DB1026852E8052F036822F0CF
:10395000010243E80525002DDAD1202280F842201B
:1039600000220263026852E8032F036822F010026B
:1039700043E80325DDB1026852E8032F036822F013
:10398000100243E8032595B1026852E8032F03684B
:1039900022F0100243E803254DB1026852E8032FDC
:1039A000036822F0100243E80325002DDAD1022239
:1039B00089B2426302B0BDE8B040FFF753BD00BF1B
:1039C00002B0BDE8B040FFF74FBD00BF026A32F859
:1039D000023B6FF35F234B60026295E5002804BF52
:1039E0000120704710B5044690F8410028B9002026
:1039F00084F84000204600F021F8242084F841009B
:103A00002068C16821F40051C160204601F0CEF861
:103A10002068016921F490410161416921F02A0186
:103A20004161C16841F40051C160002020216064FF
:103A300084F8411084F84210606310BD80B586B0F0
:103A4000006844F60002C4F2000200219042CDE971
:103A50000411CDE9021101912ED044F60041C4F2C7
:103A6000000188425AD1002043F630010090C4F290
:103A700002010A6942F400220A610A6902F4002282
:103A80000092009A00900A6842F001020A600968F8
:103A9000022201F0010100910099CDE902200820E5
:103AA00003210590002001910491C4F2020001A9B4
:103AB000FDF75CFC06B080BD43F630000091C4F217
:103AC0000200026942F480220261026902F480224B
:103AD0000092009A0091026842F0020202600068BF
:103AE00000F00200009000984FF440600190022026
:103AF000CDE9020103200490072005900020C4F2C4
:103B0000020000F5806001A9FDF730FC27200321A9
:103B10000022FDF789FD2720FDF774FD06B080BD6A
:103B20002DE9F04381B0044690F84200202809D1E5
:103B3000884600294FF0010018BF002A06D101B0C5
:103B4000BDE8F083022001B0BDE8F083002022210F
:103B50001D46606484F8421020631646FDF7E2FCBF
:103B6000A685E685A1680746B1F5805F02D1206988
:103B7000002851D046464FF00008E08D00284FD075
:103B800005F101090CE000BF406800266FF35F20DB
:103B900028F8020BE08D0138E085E08D00283FD049
:103BA00020680168890617D4B9F1000F22D0002DD2
:103BB00000F0CA80FDF7B6FCC01BA84200F2BC8032
:103BC0002068C168490744BF01685FEA01712FD4CA
:103BD00001688906EED500BF002ED5D0A168B1F5E9
:103BE000805F15D009B9216991B1406800F07F006C
:103BF0000FE000BF01688906EED4016889065CBF4A
:103C000001685FEA8161E7D401688906F2D5E3E7DC
:103C1000406806F8010BBDE70026E08D0028AFD113
:103C20000020202184F8421001B0BDE8F08300BFDD
:103C3000002100910168009140680090009800BF49
:103C4000206850E8030F216820F4907041E80302D7
:103C5000BAB3206850E8030F216820F4907041E85F
:103C6000030272B3206850E8030F216820F49070BB
:103C700041E803022AB3206850E8030F216820F4CA
:103C8000907041E80302002ADAD11AE0206850E877
:103C9000050F216820F0010041E80502DAB1206833
:103CA00050E8050F216820F0010041E8050292B1BB
:103CB000206850E8050F216820F0010041E8050266
:103CC0004AB1206850E8050F216820F0010041E862
:103CD0000502002ADAD1206B012824D1206850E89F
:103CE000030F216820F0100041E80302DAB12068D8
:103CF00050E8030F216820F0100041E8030292B160
:103D0000206850E8030F216820F0100041E803020A
:103D10004AB1206850E8030F216820F0100041E804
:103D20000302002ADAD1202084F842000020082172
:103D30002063616484F840000320202184F842104D
:103D400001B0BDE8F08300BFFDF7ECFBF4E7000035
:103D500090F84230202B07D100294FF0010318BF03
:103D6000002A05D11846704702231846704700BF45
:103D700000230363816222218285C285436480F827
:103D800042100169006819B1C16841F48071C160D5
:103D9000416941F001014161C16841F02001C16008
:103DA00018467047016844F60002C4F200029142CE
:103DB00018BF704770B540F27004C2F20004E27898
:103DC000A1780A2A0ED063290CD24B1CA37040F2B2
:103DD000D023C2F200035A54E11C0122BDE8704016
:103DE000FFF7B6BF054640F2D020C2F20000002621
:103DF000465445F65B11C0F600010522FCF7BDFBF9
:103E0000E0B140F2D02045F66B11C2F20000C0F6DE
:103E100000010622FCF7B1FB90B140F2D02045F63C
:103E20006011C2F20000C0F600010B22FCF7A5FBF6
:103E30000028284604BF0021616006E0667003E0A8
:103E4000012060700020606028460021A170E11C04
:103E50000122BDE87040FFF77BBF00002DE9F04371
:103E600081B0044690F84100202809D100294FF084
:103E7000010018BF002A07D101B0BDE8F08300BFE0
:103E8000022001B0BDE8F0830020606421201D46BF
:103E90000E4684F841001746FDF744FBA784E784EB
:103EA000A1688146B1F5805F02D1206900285DD00C
:103EB00037460020E28C2168002A5DD06A1C24D09D
:103EC000002D4AD0804600BF0868000608D4FDF7E0
:103ED00029FBA0EB0900A8427AD82168C868F3E75B
:103EE00017B117F8010B04E038F8020B00276FF345
:103EF0005F204860E08C0138E084E08C0028E3D14A
:103F00003AE000BF0A68120609D40A68120606D40D
:103F10000A6812065CBF0A685FEA0262F2D51FB146
:103F200017F8012B05E000BF30F8022B00276FF3D4
:103F30005F224A60E28C013AE284E28C002AE4D1FA
:103F40001AE000BF30F8022B00276FF35F224A60AF
:103F5000E28C013AE284E28C72B10A68120635D52D
:103F6000002FEFD017F8012BF1E700BF00273046F4
:103F7000E28C2168002AA1D1086840061ED42DB326
:103F8000681C14D1086840062AD40868400627D463
:103F90000868400624D4086840064FF00000F1D5B8
:103FA0000DE000BF2068C1680068400618D4FDF726
:103FB000B9FAA0EB0900A842F4D909E000202021B9
:103FC00084F8411001B0BDE8F08300BFFDF7AAFA04
:103FD0000320202184F8411001B0BDE8F08300BF28
:103FE0000020202184F8411001B0BDE8F0830000DA
:103FF00070470000FEE7000010B540F2E804C2F28E
:10400000000445F63C10611CC0F60000FCF786FF7A
:10401000207010BDFEE70000FEE7000070470000C2
:1040200080B5024691E809505062936208694EEAF1
:104030000C0318434969D36A084323F0F70101438D
:104040000020D16280BD0000006800F003007047CE
:10405000084440697047000040F2BC10C2F2000002
:10406000FEF7C0B910B58446DDE90240114319439B
:104070002143DDF810E00843DCF8041047F6FF6246
:1040800040EA0E00914301430020CCF8041010BD1B
:104090000146032200200A6070470000D0F880002B
:1040A00070470000096802460020C2F8801070477F
:1040B0008160C36840F2774161F30B03372141F21D
:1040C0008832C36000F030BA41F0004141F4801101
:1040D0008160C16840F2694262F30B01C16040F245
:1040E0000C01C2F20001096844F6D352C1F2620227
:1040F000A1FB0212510A41F2883251436FF00302D0
:10410000514000BF043104BF4FF000407047426B84
:1041100012F0450F02D012F4006214D0426B12F07C
:10412000450F02D012F400620DD0426B12F0450F21
:1041300002D012F4006206D0426B12F0450FE1D0BB
:1041400012F40062DED1416B042211F0040108BFB9
:10415000C5228263084670478160C3684FF48A6154
:1041600061F30B03102141F28832C36000F0DCB927
:1041700000218160C1684FF4806262F30B01C1606D
:1041800040F20C01C2F20001096844F6D352C1F2B8
:104190006202A1FB0212510A41F2883251436FF0D0
:1041A00003025140043104BF4FF000407047426B9E
:1041B000120609D4426B12065CBF426B5FEA0262D0
:1041C00002D4426B1206EDD5C521816300207047F1
:1041D0004FF4D5718160C1684FF4896262F30B01BD
:1041E000C16040F20C01C2F20001096844F6D352EA
:1041F000C1F26202A1FB0212510A41F2883251431C
:104200006FF00302514000BF043104BF4FF0004083
:104210007047426B12F0450F02D012F4006214D0C6
:10422000426B12F0450F02D012F400620DD0426BC7
:1042300012F0450F02D012F4006206D0426B12F069
:10424000450FE1D012F40062DED1416B490709D479
:10425000416BC9070AD1416B49064FF0000108D5EF
:10426000402205E00422042102E000BF01220121D6
:1042700082630846704700008160C36840F2524183
:1042800061F30B03122141F28832C36000F04CB994
:104290008160C36840F2514161F30B03112141F287
:1042A0008832C36000F040B98260C36840F2474181
:1042B00061F30B03072141F28832C36000F034B987
:1042C00000218160C16840F2C24262F30B01C1600B
:1042D00040F20C01C2F20001096844F6D352C1F267
:1042E0006202A1FB0212510A41F2883251436FF07F
:1042F00003025140043104BF4FF000407047426B4D
:1043000012F0450F02D012F4006214D0426B12F08A
:10431000450F02D012F400620DD0426B12F0450F2F
:1043200002D012F4006206D0426B12F0450FE1D0C9
:1043300012F40062DED1416B490707D4416BC90713
:1043400008D1C52181630020704700BF042181632B
:104350000420704701218163012070478160C1689A
:1043600040F2C94262F30B01C16040F20C01C2F29B
:104370000001096844F6D352C1F26202A1FB0212A5
:10438000510A41F2883251436FF00302514000BF9D
:10439000043104BF4FF000407047426B12F0450FEC
:1043A00002D012F4006214D0426B12F0450F02D01A
:1043B00012F400620DD0426B12F0450F02D012F4DD
:1043C000006206D0426B12F0450FE1D012F4006299
:1043D000DED1416B490707D4416BC90708D1C5211C
:1043E00081630020704700BF04218163042070476F
:1043F00001218163012070478160C36840F24D4113
:1044000061F30B030D2141F28832C36000F08CB8D8
:1044100000228260C26840F2434363F30B02C26031
:1044200040F20C02C2F20002126844F6D353C1F209
:104430006203A2FB03235A0A41F288335A436FF006
:1044400003035A40043204BF4FF000407047436BEF
:1044500013F0450F02D013F4006314D0436B13F034
:10446000450F02D013F400630DD0436B13F0450FDA
:1044700002D013F4006306D0436B13F0450FE1D074
:1044800013F40063DED1426B520719D4426BD2079A
:104490001AD10269D2B2032A18D1C52282634069B7
:1044A00010F4604F14D0410444BF4FF400507047E3
:1044B00000044FF4805058BF4FF48030704700BF65
:1044C000042181630420704701218163012070472A
:1044D000000C08800020704700218160C36840F212
:1044E0004C414EF2001261F30B03C0F2F5520C2165
:1044F000C36000F019B800008160C36840F2594100
:1045000061F30B03192141F28832C36000F00CB84B
:104510008160C3684FF48B6161F30B03182141F292
:104520008832C360AFF3008040F20C03C2F2000394
:10453000D3F800C044F6D353C1F26203ACFB033C92
:104540004FEA5C235A43002A00F09C80436B13F02F
:10455000450F02D013F400631DD0012A00F09280B1
:10456000436B13F0450F02D013F4006313D0022AFB
:1045700000F08880436B13F0450F02D013F4006302
:1045800009D0043A531C7DD0436B13F0450FDAD0A9
:1045900013F40063D7D1426B520777D4426BD20732
:1045A00078D1C52282630269D2B28A421CBF01203F
:1045B000704740694EF20801CFF6FF51084204BF30
:1045C00000207047002844BF4FF000707047002162
:1045D000B1EB907F1CBF40207047B1EB507F1CBFF8
:1045E00080207047B1EB107F1CBF4FF48070704784
:1045F000B1EBD06F1CBF4FF400707047B1EB906F00
:104600001CBF4FF480607047C10144BF4FF400608D
:104610007047010244BF4FF480507047410244BFCD
:104620004FF400507047810244BF4FF48040704700
:10463000C10244BF4FF400407047410344BF4FF4F0
:1046400000307047810344BF4FF480207047C1039E
:1046500044BF4FF400207047010444BF4FF4801062
:104660007047410444BF4FF400107047810444BFB9
:104670004FF48000704700074FF4000058BF4FF41C
:10468000803070474FF00040704700BF0146042063
:10469000886370470146012088637047B0B5846B1A
:1046A00040F23A52216D206809048263FFF7A4FEAC
:1046B00040B1A16B0843A063012084F834000020BE
:1046C000206313E0206800210025FFF7C1FCC0F340
:1046D000432005380121012884F83410256305D8CA
:1046E0002068FFF7F9FEA16B0843A063A06B28B117
:1046F0002046BDE8B040FDF787BD00BF2046BDE8BD
:10470000B040FDF77FBD0000B0B5846B40F23A5277
:10471000216D206809048263FFF76EFE40B1A16B32
:104720000843A063012084F834000020206313E0D4
:10473000206800210025FFF78BFCC0F343200538DB
:104740000121012884F83410256305D82068FFF77B
:10475000C3FEA16B0843A063A06B28B12046BDE84F
:10476000B040FDF751BD00BF2046BDE8B040FDF7A9
:1047700049BD0000B0B540F20804C2F200040125B2
:104780002570FCF76BFB08B12078B0BD2570FCF7F5
:1047900059FB18B1207820702078B0BD207800F047
:1047A000FE002070207820702078B0BD10B588B051
:1047B00040F20800C2F200000078C00710D10329BF
:1047C00026D80020DFE801F02502101A68461446BA
:1047D000FCF730FB06982060002008B010BD00BF39
:1047E000032008B010BD00BF68461446FCF722FB4A
:1047F00007982080002008B010BD00BF684614460E
:10480000FCF718FB0798400A2060002008B010BD94
:10481000042008B010BD000080B5084611461A46B5
:104820004FF0FF33FCF73AFB00281CBF012080BD8E
:10483000FCF708FB0028FBD1002080BD10B540F23A
:104840000804C2F2000401202070FCF7FBFA08B152
:10485000207810BD207800F0FE002070207810BD78
:1048600080B5084611461A464FF0FF33FCF72CFB83
:1048700000281CBF012080BDFCF7E4FA0028FBD112
:10488000002080BD70470000FCF752BE70B592B0AA
:1048900006AC20463021FBF79CFE002543F6400085
:1048A0000595CDE90355CDE901550095C4F2020007
:1048B0000168022641F080510160006800F08050DC
:1048C0000090009847F200000095C4F200000168D3
:1048D00041F480410160006800F48040009000983D
:1048E000092006904FF48030079001200B904FF480
:1048F00080000D9008200E90C020CDE90F06042006
:10490000119020460C96FDF781F818B172B600BFE1
:10491000FEE700BF0F20CDE901064FF4A050049040
:104920004FF48050059001A803210395FCF75EFF2A
:1049300010B172B6FEE700BF12B070BD4EF68850DF
:10494000CEF20000016841F4700101607047000080
:1049500040F2A000C2F20000FEF776BB10B540F6B0
:10496000FF3E0368C4F2000E40F2004C7045C4F2F2
:10497000010C25DCB0F1804F2FD040F20042C4F290
:104980000002904229D040F60002C4F20002904298
:1049900023D041F6FF72C4F20002904227DC70453A
:1049A0003ADCB0F1804F5BD040F20042C4F200022A
:1049B000904255D040F60002C4F200024EE000BF23
:1049C00040F60042C4F20002904206D0604504D096
:1049D0000022C4F201029042DBD14A6823F0700346
:1049E000134341F6FF72C4F200029042D7DD43F652
:1049F000FF72C4F20102904220DC42F20002C4F2D3
:104A0000000290422CD00022C4F20102904227D032
:104A1000604525D028E000BF40F60042C4F2000205
:104A200090421DD041F60002C4F20002904217D01D
:104A300041F60042C4F2000210E000BF44F200025E
:104A4000C4F2010290420BD044F60002C4F201020B
:104A5000904205D044F20042C4F20102904203D1D8
:104A6000CA6823F44073134323F080024B69D1F8E2
:104A700000E08C681A430260C46240F48062C0F8AF
:104A800028E0624504BF09690163012141610169B0
:104A9000C90708BF10BD016921F00101016110BD06
:104AA000806B0021C185C184FEF7DEBC81B090F827
:104AB0004210222921D183680246B3F5805F09D1D3
:104AC00052F8281F52F8183C002B63D003685B682B
:104AD0000AE000BF52F8281F13B90369002BF5D074
:104AE00003685B6803F07F030B701168013111608C
:104AF000C18D01390A04C18502D001B0704700BFE1
:104B00000168CA6822F02002CA60CA6822F4807272
:104B1000CA604A6922F001024A61202180F84210ED
:104B200000214163026B012A3CD10163016851E815
:104B3000031F026821F0100142E80313DBB1016892
:104B400051E8031F026821F0100142E8031393B1FA
:104B5000016851E8031F026821F0100142E80313C5
:104B60004BB1016851E8031F026821F0100142E8CF
:104B70000313002BDAD101680A68D20606D5002299
:104B800000920A680092496800910099818D01B0F5
:104B9000FEF768BC026852686FF35F2221F8022BAF
:104BA0008162A5E701B0FFF7FDB80000B0B504468B
:104BB000006804F108030ECB0569194325F440553C
:104BC0002A4302616269E3691143C268194349F2E9
:104BD0000C639A431143C1604169A26921F4407199
:104BE00041F20043114340F48062C4F201039A424F
:104BF000416103D1FCF7C0FE02E000BFFCF7A8FE54
:104C0000E1694FF69C7563681922C0F6FF75B1F52E
:104C1000004FA0FB02011FD15A00DB0FFBF74AFB3C
:104C200048F21F51C5F2EB11A0FB01235A0905F10F
:104C3000805302FB0300322303EBC000A0FB010101
:104C40004FF4F87000EA111000EB0210C1F34211AA
:104C5000084421688860B0BD9A009B0FFBF72AFBCF
:104C600048F21F51C5F2EB11A0FB01235A0902FBC8
:104C70000500322303EB0010A0FB0101F02000EA45
:104C8000511000EB0210C1F3431108442168886001
:104C9000B0BD000040F24020C2F20000FEF7E6BBCB
:104CA000FEE700009CB040F20009C4F20209FCF7E4
:104CB0004DFCFFF7EBFD002643F630070596CDE9E6
:104CC0000366CDE901661A96C4F202073868C0216E
:104CD00040F0040038603868002200F004001A90A8
:104CE0001A981A9638684FF0C00840F08000386073
:104CF000386800F080001A901A981A96386840F0C8
:104D000001003860386800F001001A901A981A966D
:104D1000386840F002003860386800F002001A90ED
:104D20001A981A96386840F008003860386800F021
:104D300008001A901A984846FCF7EEFB202001ADB7
:104D4000CDE901060124484629460394FCF70EFBF1
:104D50000220049048462946CDE901840396FCF7D9
:104D600005FB01963868002140F4800038603868FF
:104D7000002200F48000019001983B20FCF754FCD5
:104D80003B20FCF73FFC452000210022FCF74CFCB7
:104D90004520FCF737FC40F6050040F27007C0F2F2
:104DA0000100C2F200071A90A9F5EC31384640F82C
:104DB000101F7F21FF220396CDE90166C0E9016142
:104DC000C0E90326C0E90566FCF7F6FF10B172B62C
:104DD000FEE700BF07F1100501A928460122ADF842
:104DE00004608DF80660CDE90466FDF737F918B167
:104DF00072B600BFFEE700BF1AA928460122FDF7E0
:104E00007BF818B172B600BFFEE700BF40F2BC11DC
:104E1000A9F55440C2F200010022C1E90002C1E933
:104E20000222C1E904228A61A9F5F231384640F82C
:104E3000301F4BF67F31CDE90622CDE90422C0E9CF
:104E40000122C0E903128261FEF754F810B172B674
:104E5000FEE700BF07F130052846FEF779FA18B1E2
:104E600072B600BFFEE700BF002601A92846002257
:104E7000CDE9016603960596FEF78EF910B172B67C
:104E8000FEE700BF40F28820A9F5DA31C2F2000047
:104E90004FF4165A4FF00C08C0E9001AC0E9026638
:104EA000C0E90468C0E90666FEF798FD10B172B665
:104EB000FEE700BF40F24020A9F5DC31C2F200005D
:104EC0004FF00009C0E9001AC0E90299C0E904984E
:104ED000C0E90699FEF782FD10B172B6FEE700BF89
:104EE000FFF78AF82846FEF757F840F24024C2F24E
:104EF0000004F91C20460122FEF72AFF45F2414A30
:104F000045F65815C0F60D2A0DF1680801AEC0F639
:104F100000052046414604224FF0FF33CDE91AA98F
:104F2000FEF79CFF2046314609220323FEF7F8FDD9
:104F300030462946FBF70FFB0028EAD101200C4937
:104F400038700BA0071D406901918ECF0DF1080C40
:104F5000069040F240208CE88E00C2F2000001A9C9
:104F600017224FF0FF33FEF779FF00BFFEE700BFC7
:104F7000436F756E742C6261726F6D657465722C0F
:104F80006865696768740A005FEA400C08BF91F0C1
:104F9000000F4FEA8C234FEAC12243EA51514FEAF6
:104FA0001C5018BF00F5F0404FEA300018BF41F028
:104FB00000415FEA6C5C00F02980BCF1FF3F08BF54
:104FC00040F080407047130C06BF12044FF0100CE5
:104FD0004FF0000C130E04BF12020CF1080C130F5B
:104FE00004BF12010CF1040C930F04BF92000CF1EA
:104FF000020CD30F04BF52000CF1010C11464FF00C
:105000000002A0F11F00A0EB0C00704711F0004F50
:1050100008BF704731F000413FF4D5AF0B0C06BF1D
:1050200009044FF0100C4FF0000C0B0E04BF0902E6
:105030000CF1080C0B0F04BF09010CF1040C8B0FD1
:1050400004BF89000CF1020CCB0F04BF49000CF126
:10505000010CCCF1200322FA03F341EA030102FA26
:105060000CF2A0EB0C0000F10100704723F07F4729
:1050700020F07F4C80EA030000F00040ACEB070317
:1050800003F57C5303F1FF032DE9804909B44FEA8E
:10509000144324EA03484FEA154B25EA0B4E0FF25E
:1050A000042606EB13273E7803FB0667C7F50007C7
:1050B00007FB06F64FEAD64606F102064FEA5437DA
:1050C00007FB066CCCF1005C4FEA1C472CEA074C4E
:1050D0000CFB06F507FB06F404EB15464FEA9616A3
:1050E00049085FEA320234BF00204FF000404FEA27
:1050F000D13706FB07FC4FEA1C4C0CFB0BF7D21B0D
:1051000003FB0CF761EB07010CFB0EF7B0EB07405C
:1051100072EB17420CFB08F734BFA2EB0742B2EB6D
:10512000074261EB17414FEA0C444FEA910706FB37
:1051300007FC4FEA1C4C0CFB0BF7B0EBC74072EBC3
:10514000573203FB0CF734BFA2EBC742B2EBC742A6
:1051500061EB57310CFB0EF7B0EBC70072EB5772E7
:105160000CFB08F734BFA2EBC702B2EBC70261EB3E
:1051700057714FEA816141EA92114FEA826242EA35
:1051800090124FEA806004EBCC04039F4FEAD137C2
:1051900006FB07FC4FEA1C4C0CFB0BF7D21B03FB76
:1051A0000CF761EB07010CFB0EF7B0EB074072EB5D
:1051B00017420CFB08F734BFA2EB0742B2EB0742E1
:1051C00061EB17414FEA8C5504EB9C244FEA9107A1
:1051D00006FB07FC4FEA1C4C0CFB0BF7B0EBC7407F
:1051E00072EB573203FB0CF734BFA2EBC742B2EBB2
:1051F000C74261EB57310CFB0EF7B0EBC70072EB07
:1052000057720CFB08F734BFA2EBC702B2EBC70220
:1052100061EB57714FEA816141EA92114FEA826274
:1052200042EA90124FEA806015EB4C2544F10004ED
:105230004FEAD13706FB07FC4FEA1C4C0CFB0BF77F
:10524000D21B03FB0CF761EB07010CFB0EF7B0EB75
:10525000074072EB17420CFB08F734BFA2EB074282
:10526000B2EB074261EB17414FEA813141EA9241CB
:105270004FEA823242EA90424FEA80304FEA0C769F
:1052800015EB1C1544F1000448EA03434EEA0B48B1
:105290004FF0000EB2EB080C71EB030724BF62461F
:1052A00039464EEB0E0E4FF0000B001852414941AB
:1052B0004BEB0B0BB2EB080C71EB03077BF1000B14
:1052C00024BF624639464EEB0E0E4FF0000B00181D
:1052D000524149414BEB0B0BB2EB080C71EB03074E
:1052E0007BF1000B24BF624639464EEB0E0E51EAAD
:1052F000020718BF46F0010616EB0E7655F10002C4
:1053000054F1000103D5BDE88901BDE80088BDE87E
:105310008901BDE80048B619524141EB0101A3F1F2
:105320000103704780807F7E7D7C7B7A79787776F9
:1053300076757473727171706F6E6E6D6C6C6B6A72
:105340006A69686867666665646463636261616010
:10535000605F5F5E5E5D5D5C5C5B5B5A5A5959588D
:1053600058575756565555555454535352525251F7
:10537000515050504F4F4F4E4E4D4D4D4C4C4C4B4D
:105380004B4B4A4A4A494949484848474747474694
:1053900046464545454444444443434343424242D0
:1053A000424141419C46002B30D477002BD04FEA3C
:1053B00037071CB503B44FF010004FF01001BAF1DD
:1053C000000F06D0BCF1000FDCBF40F0080040F039
:1053D00008014FF000000FBCBDE810400BF1010BBD
:1053E000BBF1010F08BF5FEA170722BF12F10102EC
:1053F00011F101014FF0004143F1000300F00040C2
:1054000043EA00007047F9D35708D0E746EA06465A
:105410004FEA164613F1400F1FDD13F1200FDFBFD7
:1054200016430A46002120335B42BED0C3F1200759
:1054300046EA06464FEA164602FA07F746EA070624
:1054400022FA03F2C3F1200701FA07F742EA070242
:1054500021FA03F14FF00003A7E746EA020646EA05
:1054600006464FEA164646EA0106BCBF46EA06462D
:10547000360C4FF000034FF000024FF0000194E7AC
:105480002DE9804C70B49A46934691E8380007C8DD
:1054900031EA400C48BF34EA430C03D5FFF7E6FD80
:1054A000FFF780FFF0BCBDE8008C2DE9804C70B4A4
:1054B0009A46934691E8380007C810F0804F08BF1D
:1054C00013F0804F03D100F005F8FFF76BFFF0BC3D
:1054D000BDE8008C20F07F4723F07F4C80EA03007A
:1054E00000F0004007EB0C03A3F57C53A3F1FE038F
:1054F00092F0000F00F0B38095F0000F00F077807D
:105500002DE901494FEA114021EA00484FEA1446CB
:1055100024EA064700FB06FC08FB06F607FB08F832
:1055200018EB06484CEB164C00FB07F718EB074846
:105530004CEB17404FEA124B22EA0B4E4FEA15464E
:1055400025EA06470BFB06FC0EFB06F607FB0EFEE4
:105550001EEB064E4CEB164C0BFB07F71EEB074EF3
:105560004CEB174B18EB0B0840F1000018EB0E0B3F
:1055700058EB000840F100008F1A4FF000014FF087
:1055800000063CBFC943661B14BFB5EB040C0021E9
:105590003CBFC943F61B4FEA174427EA04454FEACC
:1055A0001C472CEA074C04FB076205FB07F70CFBC2
:1055B00005F616EB074642EB174204FB0CFC16EB14
:1055C0000C4642EB1C421BEB060658EB0202414123
:1055D0004EEA8E0E46EA9E0601D5BDE80189B6194F
:1055E000524141EB0101A3F10103BDE801894FEAFA
:1055F000144524EA05464FEA114721EA074C05FB0A
:1056000007F406FB07F70CFB06F111EB074144EB2F
:10561000174405FB0CFC11EB0C4144EB1C444FEA16
:10562000124722EA074C05FB07F206FB07F70CFBC3
:1056300006F616EB074642EB174205FB0CFC16EB91
:105640000C4642EB1C456A1854F1000148BF7047F4
:10565000B619524141EB0101A3F10103704795F0E6
:10566000000F37D04FEA114221EA02464FEA1447B1
:1056700024EA074C02FB07F106FB07F70CFB06F4D4
:1056800014EB074441EB174102FB0CFC14EB0C44F8
:1056900041EB1C414FEA154725EA074C02FB07F591
:1056A00006FB07F70CFB06F616EB074645EB17451E
:1056B00002FB0CFC16EB0C4645EB1C42121951F197
:1056C000000148BF7047B619524141EB0101A3F1F7
:1056D000010370474FEA144524EA05464FEA114793
:1056E00021EA074C05FB07F106FB07F70CFB06F266
:1056F00012EB074241EB174105FB0CFC12EB0C428D
:1057000051EB1C414FF0000648BF7047921841EB27
:105710000101A3F10103704703B40198410000980F
:1057200050EAC12018BF04204A0D18BF40F0010004
:1057300040F2FF72B2EB515F08BF40F00200012857
:1057400008BF052002B0704730380A2801D2012076
:10575000704700207047000010B500290AD0087873
:10576000002807D005487844FAF75AFF002801D0EE
:10577000002010BD0248784410BD00002E02000039
:10578000260200000808A0F500114FEA3101704719
:1057900043004FEAD30C4FEA3C0C43401FBF400785
:1057A0000CF1605113F0FE4F70471CF0006F03D1F5
:1057B0000CF00041002070470CF0004343EA5070A9
:1057C00040EACC0010B500F00EF800BF00000092D7
:1057D0004FEA0001FFF7D6BF4FF00041A1F50021CD
:1057E0004FF0000070470EF1020E2EF0030E5EF82F
:1057F000044B244204D44FEA4102B2F17F4F11D846
:105800004FEA4003B3F17F4F0CD80ED14FEAD07C62
:105810000CEB4C0C0CF1020CB2F17F4F08BF4CEBBF
:10582000D17C04E04FF0080C01E04FEAD17C0CEB96
:105830004C0324FA03F404F00704B4F1040C06D278
:105840000EEB840CBDE810404CF0010C6047DFE823
:105850000CF0070802024FF00040A0F5800010BDD8
:105860000846420018BFD2F1807288BF00F00040A5
:1058700010BDF1EE100A4FF6FF71C0F2C03120EA00
:10588000010040F04070E1EE100A7047FBF73AB8B3
:1058900002400000000000A00000000005400000E1
:1058A000000000C8000000000C4000000000409C08
:1058B00000000000194000000020BCBE00000000F5
:1058C00034400000BFC91B8E00000004B54000003A
:1058D000504BCFD06607E2CF010000006C410000C2
:1058E0003E8251AADFEEA73401000000D942000039
:1058F000DCB5A0E23A301F97FFFFFFFFB445000080
:10590000FD25A0C8E9A3C14FFFFFFFFFFF3F000037
:105910000000008000000000FF3F00000000008049
:10592000000000000000000000000000010203046D
:10593000060708090000000001020304754700087B
:105940003D4800081948000861480008AD470008B4
:1059500000061016000610164F4B0053544F50000F
:105960005245534554434F554E540053544152549D
:1059700000000000B05900080000002010000000E6
:10598000EC010008C05900081000002028090000A0
:105990000C0200081C00000043000000F8FFFFFF9D
:1059A0000C0000000E0000000F0000002E000000A0
:1059B0000100000010000000010000000024F400BD
:040000050800018965
:00000001FF
